{
  "_format": "hh-sol-artifact-1",
  "contractName": "NFTMarket",
  "sourceName": "contracts/NFTMarket.sol",
  "abi": [
    {
      "inputs": [],
      "stateMutability": "nonpayable",
      "type": "constructor"
    },
    {
      "anonymous": false,
      "inputs": [
        {
          "indexed": true,
          "internalType": "address",
          "name": "owner",
          "type": "address"
        },
        {
          "indexed": true,
          "internalType": "address",
          "name": "approved",
          "type": "address"
        },
        {
          "indexed": true,
          "internalType": "uint256",
          "name": "tokenId",
          "type": "uint256"
        }
      ],
      "name": "Approval",
      "type": "event"
    },
    {
      "anonymous": false,
      "inputs": [
        {
          "indexed": true,
          "internalType": "address",
          "name": "owner",
          "type": "address"
        },
        {
          "indexed": true,
          "internalType": "address",
          "name": "operator",
          "type": "address"
        },
        {
          "indexed": false,
          "internalType": "bool",
          "name": "approved",
          "type": "bool"
        }
      ],
      "name": "ApprovalForAll",
      "type": "event"
    },
    {
      "anonymous": false,
      "inputs": [
        {
          "indexed": false,
          "internalType": "uint256",
          "name": "tokenID",
          "type": "uint256"
        },
        {
          "indexed": false,
          "internalType": "address",
          "name": "from",
          "type": "address"
        },
        {
          "indexed": false,
          "internalType": "address",
          "name": "to",
          "type": "address"
        },
        {
          "indexed": false,
          "internalType": "string",
          "name": "tokenURI",
          "type": "string"
        },
        {
          "indexed": false,
          "internalType": "uint256",
          "name": "price",
          "type": "uint256"
        }
      ],
      "name": "NFTTransfer",
      "type": "event"
    },
    {
      "anonymous": false,
      "inputs": [
        {
          "indexed": true,
          "internalType": "address",
          "name": "previousOwner",
          "type": "address"
        },
        {
          "indexed": true,
          "internalType": "address",
          "name": "newOwner",
          "type": "address"
        }
      ],
      "name": "OwnershipTransferred",
      "type": "event"
    },
    {
      "anonymous": false,
      "inputs": [
        {
          "indexed": true,
          "internalType": "address",
          "name": "from",
          "type": "address"
        },
        {
          "indexed": true,
          "internalType": "address",
          "name": "to",
          "type": "address"
        },
        {
          "indexed": true,
          "internalType": "uint256",
          "name": "tokenId",
          "type": "uint256"
        }
      ],
      "name": "Transfer",
      "type": "event"
    },
    {
      "inputs": [
        {
          "internalType": "address",
          "name": "to",
          "type": "address"
        },
        {
          "internalType": "uint256",
          "name": "tokenId",
          "type": "uint256"
        }
      ],
      "name": "approve",
      "outputs": [],
      "stateMutability": "nonpayable",
      "type": "function"
    },
    {
      "inputs": [
        {
          "internalType": "address",
          "name": "owner",
          "type": "address"
        }
      ],
      "name": "balanceOf",
      "outputs": [
        {
          "internalType": "uint256",
          "name": "",
          "type": "uint256"
        }
      ],
      "stateMutability": "view",
      "type": "function"
    },
    {
      "inputs": [
        {
          "internalType": "uint256",
          "name": "tokenID",
          "type": "uint256"
        }
      ],
      "name": "buyNFT",
      "outputs": [],
      "stateMutability": "payable",
      "type": "function"
    },
    {
      "inputs": [
        {
          "internalType": "uint256",
          "name": "tokenID",
          "type": "uint256"
        }
      ],
      "name": "cancelListing",
      "outputs": [],
      "stateMutability": "nonpayable",
      "type": "function"
    },
    {
      "inputs": [
        {
          "internalType": "string",
          "name": "tokenURI",
          "type": "string"
        }
      ],
      "name": "createNFT",
      "outputs": [],
      "stateMutability": "nonpayable",
      "type": "function"
    },
    {
      "inputs": [
        {
          "internalType": "uint256",
          "name": "tokenId",
          "type": "uint256"
        }
      ],
      "name": "getApproved",
      "outputs": [
        {
          "internalType": "address",
          "name": "",
          "type": "address"
        }
      ],
      "stateMutability": "view",
      "type": "function"
    },
    {
      "inputs": [],
      "name": "getBuyerCount",
      "outputs": [
        {
          "internalType": "uint256",
          "name": "",
          "type": "uint256"
        }
      ],
      "stateMutability": "view",
      "type": "function"
    },
    {
      "inputs": [],
      "name": "getNFTCount",
      "outputs": [
        {
          "internalType": "uint256",
          "name": "",
          "type": "uint256"
        }
      ],
      "stateMutability": "view",
      "type": "function"
    },
    {
      "inputs": [],
      "name": "getSellerCount",
      "outputs": [
        {
          "internalType": "uint256",
          "name": "",
          "type": "uint256"
        }
      ],
      "stateMutability": "view",
      "type": "function"
    },
    {
      "inputs": [],
      "name": "getTotalAmount",
      "outputs": [
        {
          "internalType": "uint256",
          "name": "",
          "type": "uint256"
        }
      ],
      "stateMutability": "view",
      "type": "function"
    },
    {
      "inputs": [],
      "name": "getTransactionCount",
      "outputs": [
        {
          "internalType": "uint256",
          "name": "",
          "type": "uint256"
        }
      ],
      "stateMutability": "view",
      "type": "function"
    },
    {
      "inputs": [
        {
          "internalType": "address",
          "name": "owner",
          "type": "address"
        },
        {
          "internalType": "address",
          "name": "operator",
          "type": "address"
        }
      ],
      "name": "isApprovedForAll",
      "outputs": [
        {
          "internalType": "bool",
          "name": "",
          "type": "bool"
        }
      ],
      "stateMutability": "view",
      "type": "function"
    },
    {
      "inputs": [
        {
          "internalType": "uint256",
          "name": "tokenID",
          "type": "uint256"
        },
        {
          "internalType": "uint256",
          "name": "price",
          "type": "uint256"
        }
      ],
      "name": "listNFT",
      "outputs": [],
      "stateMutability": "nonpayable",
      "type": "function"
    },
    {
      "inputs": [],
      "name": "name",
      "outputs": [
        {
          "internalType": "string",
          "name": "",
          "type": "string"
        }
      ],
      "stateMutability": "view",
      "type": "function"
    },
    {
      "inputs": [],
      "name": "owner",
      "outputs": [
        {
          "internalType": "address",
          "name": "",
          "type": "address"
        }
      ],
      "stateMutability": "view",
      "type": "function"
    },
    {
      "inputs": [
        {
          "internalType": "uint256",
          "name": "tokenId",
          "type": "uint256"
        }
      ],
      "name": "ownerOf",
      "outputs": [
        {
          "internalType": "address",
          "name": "",
          "type": "address"
        }
      ],
      "stateMutability": "view",
      "type": "function"
    },
    {
      "inputs": [],
      "name": "renounceOwnership",
      "outputs": [],
      "stateMutability": "nonpayable",
      "type": "function"
    },
    {
      "inputs": [
        {
          "internalType": "address",
          "name": "from",
          "type": "address"
        },
        {
          "internalType": "address",
          "name": "to",
          "type": "address"
        },
        {
          "internalType": "uint256",
          "name": "tokenId",
          "type": "uint256"
        }
      ],
      "name": "safeTransferFrom",
      "outputs": [],
      "stateMutability": "nonpayable",
      "type": "function"
    },
    {
      "inputs": [
        {
          "internalType": "address",
          "name": "from",
          "type": "address"
        },
        {
          "internalType": "address",
          "name": "to",
          "type": "address"
        },
        {
          "internalType": "uint256",
          "name": "tokenId",
          "type": "uint256"
        },
        {
          "internalType": "bytes",
          "name": "_data",
          "type": "bytes"
        }
      ],
      "name": "safeTransferFrom",
      "outputs": [],
      "stateMutability": "nonpayable",
      "type": "function"
    },
    {
      "inputs": [
        {
          "internalType": "address",
          "name": "operator",
          "type": "address"
        },
        {
          "internalType": "bool",
          "name": "approved",
          "type": "bool"
        }
      ],
      "name": "setApprovalForAll",
      "outputs": [],
      "stateMutability": "nonpayable",
      "type": "function"
    },
    {
      "inputs": [
        {
          "internalType": "bytes4",
          "name": "interfaceId",
          "type": "bytes4"
        }
      ],
      "name": "supportsInterface",
      "outputs": [
        {
          "internalType": "bool",
          "name": "",
          "type": "bool"
        }
      ],
      "stateMutability": "view",
      "type": "function"
    },
    {
      "inputs": [],
      "name": "symbol",
      "outputs": [
        {
          "internalType": "string",
          "name": "",
          "type": "string"
        }
      ],
      "stateMutability": "view",
      "type": "function"
    },
    {
      "inputs": [
        {
          "internalType": "uint256",
          "name": "tokenId",
          "type": "uint256"
        }
      ],
      "name": "tokenURI",
      "outputs": [
        {
          "internalType": "string",
          "name": "",
          "type": "string"
        }
      ],
      "stateMutability": "view",
      "type": "function"
    },
    {
      "inputs": [
        {
          "internalType": "address",
          "name": "from",
          "type": "address"
        },
        {
          "internalType": "address",
          "name": "to",
          "type": "address"
        },
        {
          "internalType": "uint256",
          "name": "tokenId",
          "type": "uint256"
        }
      ],
      "name": "transferFrom",
      "outputs": [],
      "stateMutability": "nonpayable",
      "type": "function"
    },
    {
      "inputs": [
        {
          "internalType": "address",
          "name": "newOwner",
          "type": "address"
        }
      ],
      "name": "transferOwnership",
      "outputs": [],
      "stateMutability": "nonpayable",
      "type": "function"
    },
    {
      "inputs": [],
      "name": "withdrawFunds",
      "outputs": [],
      "stateMutability": "nonpayable",
      "type": "function"
    }
  ],
  "bytecode": "0x60806040523480156200001157600080fd5b506040518060400160405280600c81526020017f4162646f752773204e46547300000000000000000000000000000000000000008152506040518060400160405280600481526020017f414e465400000000000000000000000000000000000000000000000000000000815250816000908051906020019062000096929190620001ae565b508060019080519060200190620000af929190620001ae565b505050620000d2620000c6620000e060201b60201c565b620000e860201b60201c565b6000601181905550620002c3565b600033905090565b6000600760009054906101000a900473ffffffffffffffffffffffffffffffffffffffff16905081600760006101000a81548173ffffffffffffffffffffffffffffffffffffffff021916908373ffffffffffffffffffffffffffffffffffffffff1602179055508173ffffffffffffffffffffffffffffffffffffffff168173ffffffffffffffffffffffffffffffffffffffff167f8be0079c531659141344cd1fd0a4f28419497f9722a3daafe3b4186f6b6457e060405160405180910390a35050565b828054620001bc906200028d565b90600052602060002090601f016020900481019282620001e057600085556200022c565b82601f10620001fb57805160ff19168380011785556200022c565b828001600101855582156200022c579182015b828111156200022b5782518255916020019190600101906200020e565b5b5090506200023b91906200023f565b5090565b5b808211156200025a57600081600090555060010162000240565b5090565b7f4e487b7100000000000000000000000000000000000000000000000000000000600052602260045260246000fd5b60006002820490506001821680620002a657607f821691505b60208210811415620002bd57620002bc6200025e565b5b50919050565b61441d80620002d36000396000f3fe6080604052600436106101815760003560e01c806370a08231116100d157806395d89b411161008a578063c87b56dd11610064578063c87b56dd1461053b578063da2ed03e14610578578063e985e9c5146105a1578063f2fde38b146105de57610181565b806395d89b41146104be578063a22cb465146104e9578063b88d4fde1461051257610181565b806370a08231146103c0578063715018a6146103fd5780637cac07af146104145780638da5cb5b1461043f57806393084a2a1461046a57806394383f141461049557610181565b80632e7700f01161013e57806351ed82881161011857806351ed828814610311578063542796371461032d5780636352211e1461035857806365ac43411461039557610181565b80632e7700f014610294578063305a67a8146102bf57806342842e0e146102e857610181565b806301ffc9a71461018657806306fdde03146101c3578063081812fc146101ee578063095ea7b31461022b57806323b872dd1461025457806324600fc31461027d575b600080fd5b34801561019257600080fd5b506101ad60048036038101906101a89190612b88565b610607565b6040516101ba9190612bd0565b60405180910390f35b3480156101cf57600080fd5b506101d86106e9565b6040516101e59190612c84565b60405180910390f35b3480156101fa57600080fd5b5061021560048036038101906102109190612cdc565b61077b565b6040516102229190612d4a565b60405180910390f35b34801561023757600080fd5b50610252600480360381019061024d9190612d91565b610800565b005b34801561026057600080fd5b5061027b60048036038101906102769190612dd1565b610918565b005b34801561028957600080fd5b50610292610978565b005b3480156102a057600080fd5b506102a9610a86565b6040516102b69190612e33565b60405180910390f35b3480156102cb57600080fd5b506102e660048036038101906102e19190612cdc565b610a97565b005b3480156102f457600080fd5b5061030f600480360381019061030a9190612dd1565b610e16565b005b61032b60048036038101906103269190612cdc565b610e36565b005b34801561033957600080fd5b506103426110cb565b60405161034f9190612e33565b60405180910390f35b34801561036457600080fd5b5061037f600480360381019061037a9190612cdc565b6110dc565b60405161038c9190612d4a565b60405180910390f35b3480156103a157600080fd5b506103aa61118e565b6040516103b79190612e33565b60405180910390f35b3480156103cc57600080fd5b506103e760048036038101906103e29190612e4e565b611198565b6040516103f49190612e33565b60405180910390f35b34801561040957600080fd5b50610412611250565b005b34801561042057600080fd5b506104296112d8565b6040516104369190612e33565b60405180910390f35b34801561044b57600080fd5b506104546112e9565b6040516104619190612d4a565b60405180910390f35b34801561047657600080fd5b5061047f611313565b60405161048c9190612e33565b60405180910390f35b3480156104a157600080fd5b506104bc60048036038101906104b79190612e7b565b611324565b005b3480156104ca57600080fd5b506104d361158f565b6040516104e09190612c84565b60405180910390f35b3480156104f557600080fd5b50610510600480360381019061050b9190612ee7565b611621565b005b34801561051e57600080fd5b506105396004803603810190610534919061305c565b611637565b005b34801561054757600080fd5b50610562600480360381019061055d9190612cdc565b611699565b60405161056f9190612c84565b60405180910390f35b34801561058457600080fd5b5061059f600480360381019061059a919061313f565b6117eb565b005b3480156105ad57600080fd5b506105c860048036038101906105c3919061318c565b6118ad565b6040516105d59190612bd0565b60405180910390f35b3480156105ea57600080fd5b5061060560048036038101906106009190612e4e565b611941565b005b60007f80ac58cd000000000000000000000000000000000000000000000000000000007bffffffffffffffffffffffffffffffffffffffffffffffffffffffff1916827bffffffffffffffffffffffffffffffffffffffffffffffffffffffff191614806106d257507f5b5e139f000000000000000000000000000000000000000000000000000000007bffffffffffffffffffffffffffffffffffffffffffffffffffffffff1916827bffffffffffffffffffffffffffffffffffffffffffffffffffffffff1916145b806106e257506106e182611a39565b5b9050919050565b6060600080546106f8906131fb565b80601f0160208091040260200160405190810160405280929190818152602001828054610724906131fb565b80156107715780601f1061074657610100808354040283529160200191610771565b820191906000526020600020905b81548152906001019060200180831161075457829003601f168201915b5050505050905090565b600061078682611aa3565b6107c5576040517f08c379a00000000000000000000000000000000000000000000000000000000081526004016107bc9061329f565b60405180910390fd5b6004600083815260200190815260200160002060009054906101000a900473ffffffffffffffffffffffffffffffffffffffff169050919050565b600061080b826110dc565b90508073ffffffffffffffffffffffffffffffffffffffff168373ffffffffffffffffffffffffffffffffffffffff16141561087c576040517f08c379a000000000000000000000000000000000000000000000000000000000815260040161087390613331565b60405180910390fd5b8073ffffffffffffffffffffffffffffffffffffffff1661089b611b0f565b73ffffffffffffffffffffffffffffffffffffffff1614806108ca57506108c9816108c4611b0f565b6118ad565b5b610909576040517f08c379a0000000000000000000000000000000000000000000000000000000008152600401610900906133c3565b60405180910390fd5b6109138383611b17565b505050565b610929610923611b0f565b82611bd0565b610968576040517f08c379a000000000000000000000000000000000000000000000000000000000815260040161095f90613455565b60405180910390fd5b610973838383611cae565b505050565b610980611b0f565b73ffffffffffffffffffffffffffffffffffffffff1661099e6112e9565b73ffffffffffffffffffffffffffffffffffffffff16146109f4576040517f08c379a00000000000000000000000000000000000000000000000000000000081526004016109eb906134c1565b60405180910390fd5b600047905060008111610a3c576040517f08c379a0000000000000000000000000000000000000000000000000000000008152600401610a339061352d565b60405180910390fd5b3373ffffffffffffffffffffffffffffffffffffffff166108fc829081150290604051600060405180830381858888f19350505050158015610a82573d6000803e3d6000fd5b5050565b6000610a92600a611f0a565b905090565b6000600c6000838152602001908152602001600020604051806040016040529081600082015481526020016001820160009054906101000a900473ffffffffffffffffffffffffffffffffffffffff1673ffffffffffffffffffffffffffffffffffffffff1673ffffffffffffffffffffffffffffffffffffffff168152505090506000816000015111610b60576040517f08c379a0000000000000000000000000000000000000000000000000000000008152600401610b57906135bf565b60405180910390fd5b3373ffffffffffffffffffffffffffffffffffffffff16816020015173ffffffffffffffffffffffffffffffffffffffff1614610bd2576040517f08c379a0000000000000000000000000000000000000000000000000000000008152600401610bc99061362b565b60405180910390fd5b3073ffffffffffffffffffffffffffffffffffffffff166323b872dd3033856040518463ffffffff1660e01b8152600401610c0f9392919061364b565b600060405180830381600087803b158015610c2957600080fd5b505af1158015610c3d573d6000803e3d6000fd5b50505050610c4a82611f18565b7f705332a8918666802fc1504f63ff1f002a5f6cedd30d59ad7ae0b5281aeb8dca8230336000604051610c8094939291906136ed565b60405180910390a16000600e60003373ffffffffffffffffffffffffffffffffffffffff1673ffffffffffffffffffffffffffffffffffffffff168152602001908152602001600020541115610e1257610d236001600e60003373ffffffffffffffffffffffffffffffffffffffff1673ffffffffffffffffffffffffffffffffffffffff16815260200190815260200160002054611f8d90919063ffffffff16565b600e60003373ffffffffffffffffffffffffffffffffffffffff1673ffffffffffffffffffffffffffffffffffffffff168152602001908152602001600020819055506000600e60003373ffffffffffffffffffffffffffffffffffffffff1673ffffffffffffffffffffffffffffffffffffffff168152602001908152602001600020541415610e11576000600d60003373ffffffffffffffffffffffffffffffffffffffff1673ffffffffffffffffffffffffffffffffffffffff16815260200190815260200160002060006101000a81548160ff021916908315150217905550610e10600b611fa3565b5b5b5050565b610e3183838360405180602001604052806000815250611637565b505050565b6000600c6000838152602001908152602001600020604051806040016040529081600082015481526020016001820160009054906101000a900473ffffffffffffffffffffffffffffffffffffffff1673ffffffffffffffffffffffffffffffffffffffff1673ffffffffffffffffffffffffffffffffffffffff168152505090506000816000015111610eff576040517f08c379a0000000000000000000000000000000000000000000000000000000008152600401610ef6906135bf565b60405180910390fd5b80600001513414610f45576040517f08c379a0000000000000000000000000000000000000000000000000000000008152600401610f3c90613791565b60405180910390fd5b3073ffffffffffffffffffffffffffffffffffffffff166323b872dd3033856040518463ffffffff1660e01b8152600401610f829392919061364b565b600060405180830381600087803b158015610f9c57600080fd5b505af1158015610fb0573d6000803e3d6000fd5b50505050610fbd82611f18565b806020015173ffffffffffffffffffffffffffffffffffffffff166108fc6110066064610ff8605f8660000151611fff90919063ffffffff16565b61201590919063ffffffff16565b9081150290604051600060405180830381858888f19350505050158015611031573d6000803e3d6000fd5b5061104b816000015160115461202b90919063ffffffff16565b6011819055507f705332a8918666802fc1504f63ff1f002a5f6cedd30d59ad7ae0b5281aeb8dca823033600060405161108794939291906136ed565b60405180910390a16110a333600f61204190919063ffffffff16565b6110bd576110bb33600f61207190919063ffffffff16565b505b6110c7600a6120a1565b5050565b60006110d76009611f0a565b905090565b6000806002600084815260200190815260200160002060009054906101000a900473ffffffffffffffffffffffffffffffffffffffff169050600073ffffffffffffffffffffffffffffffffffffffff168173ffffffffffffffffffffffffffffffffffffffff161415611185576040517f08c379a000000000000000000000000000000000000000000000000000000000815260040161117c90613823565b60405180910390fd5b80915050919050565b6000601154905090565b60008073ffffffffffffffffffffffffffffffffffffffff168273ffffffffffffffffffffffffffffffffffffffff161415611209576040517f08c379a0000000000000000000000000000000000000000000000000000000008152600401611200906138b5565b60405180910390fd5b600360008373ffffffffffffffffffffffffffffffffffffffff1673ffffffffffffffffffffffffffffffffffffffff168152602001908152602001600020549050919050565b611258611b0f565b73ffffffffffffffffffffffffffffffffffffffff166112766112e9565b73ffffffffffffffffffffffffffffffffffffffff16146112cc576040517f08c379a00000000000000000000000000000000000000000000000000000000081526004016112c3906134c1565b60405180910390fd5b6112d660006120b7565b565b60006112e4600b611f0a565b905090565b6000600760009054906101000a900473ffffffffffffffffffffffffffffffffffffffff16905090565b600061131f600f61217d565b905090565b60008111611367576040517f08c379a000000000000000000000000000000000000000000000000000000000815260040161135e90613947565b60405180910390fd5b611372333084610918565b60405180604001604052808281526020013373ffffffffffffffffffffffffffffffffffffffff16815250600c60008481526020019081526020016000206000820151816000015560208201518160010160006101000a81548173ffffffffffffffffffffffffffffffffffffffff021916908373ffffffffffffffffffffffffffffffffffffffff1602179055509050507f705332a8918666802fc1504f63ff1f002a5f6cedd30d59ad7ae0b5281aeb8dca823330846040516114399493929190613967565b60405180910390a1600d60003373ffffffffffffffffffffffffffffffffffffffff1673ffffffffffffffffffffffffffffffffffffffff16815260200190815260200160002060009054906101000a900460ff166114f5576001600d60003373ffffffffffffffffffffffffffffffffffffffff1673ffffffffffffffffffffffffffffffffffffffff16815260200190815260200160002060006101000a81548160ff0219169083151502179055506114f4600b6120a1565b5b6115486001600e60003373ffffffffffffffffffffffffffffffffffffffff1673ffffffffffffffffffffffffffffffffffffffff1681526020019081526020016000205461202b90919063ffffffff16565b600e60003373ffffffffffffffffffffffffffffffffffffffff1673ffffffffffffffffffffffffffffffffffffffff168152602001908152602001600020819055505050565b60606001805461159e906131fb565b80601f01602080910402602001604051908101604052809291908181526020018280546115ca906131fb565b80156116175780601f106115ec57610100808354040283529160200191611617565b820191906000526020600020905b8154815290600101906020018083116115fa57829003601f168201915b5050505050905090565b61163361162c611b0f565b8383612192565b5050565b611648611642611b0f565b83611bd0565b611687576040517f08c379a000000000000000000000000000000000000000000000000000000000815260040161167e90613455565b60405180910390fd5b611693848484846122ff565b50505050565b60606116a482611aa3565b6116e3576040517f08c379a00000000000000000000000000000000000000000000000000000000081526004016116da90613a31565b60405180910390fd5b6000600660008481526020019081526020016000208054611703906131fb565b80601f016020809104026020016040519081016040528092919081815260200182805461172f906131fb565b801561177c5780601f106117515761010080835404028352916020019161177c565b820191906000526020600020905b81548152906001019060200180831161175f57829003601f168201915b50505050509050600061178d61235b565b90506000815114156117a35781925050506117e6565b6000825111156117d85780826040516020016117c0929190613a8d565b604051602081830303815290604052925050506117e6565b6117e184612372565b925050505b919050565b6117f560086120a1565b6117ff60096120a1565b600061180b6008611f0a565b90506118173382612419565b6118658184848080601f016020809104026020016040519081016040528093929190818152602001838380828437600081840152601f19601f82011690508083019250505050505050612437565b7f705332a8918666802fc1504f63ff1f002a5f6cedd30d59ad7ae0b5281aeb8dca81600033868660006040516118a096959493929190613ade565b60405180910390a1505050565b6000600560008473ffffffffffffffffffffffffffffffffffffffff1673ffffffffffffffffffffffffffffffffffffffff16815260200190815260200160002060008373ffffffffffffffffffffffffffffffffffffffff1673ffffffffffffffffffffffffffffffffffffffff16815260200190815260200160002060009054906101000a900460ff16905092915050565b611949611b0f565b73ffffffffffffffffffffffffffffffffffffffff166119676112e9565b73ffffffffffffffffffffffffffffffffffffffff16146119bd576040517f08c379a00000000000000000000000000000000000000000000000000000000081526004016119b4906134c1565b60405180910390fd5b600073ffffffffffffffffffffffffffffffffffffffff168173ffffffffffffffffffffffffffffffffffffffff161415611a2d576040517f08c379a0000000000000000000000000000000000000000000000000000000008152600401611a2490613bac565b60405180910390fd5b611a36816120b7565b50565b60007f01ffc9a7000000000000000000000000000000000000000000000000000000007bffffffffffffffffffffffffffffffffffffffffffffffffffffffff1916827bffffffffffffffffffffffffffffffffffffffffffffffffffffffff1916149050919050565b60008073ffffffffffffffffffffffffffffffffffffffff166002600084815260200190815260200160002060009054906101000a900473ffffffffffffffffffffffffffffffffffffffff1673ffffffffffffffffffffffffffffffffffffffff1614159050919050565b600033905090565b816004600083815260200190815260200160002060006101000a81548173ffffffffffffffffffffffffffffffffffffffff021916908373ffffffffffffffffffffffffffffffffffffffff160217905550808273ffffffffffffffffffffffffffffffffffffffff16611b8a836110dc565b73ffffffffffffffffffffffffffffffffffffffff167f8c5be1e5ebec7d5bd14f71427d1e84f3dd0314c0f7b2291e5b200ac8c7c3b92560405160405180910390a45050565b6000611bdb82611aa3565b611c1a576040517f08c379a0000000000000000000000000000000000000000000000000000000008152600401611c1190613c3e565b60405180910390fd5b6000611c25836110dc565b90508073ffffffffffffffffffffffffffffffffffffffff168473ffffffffffffffffffffffffffffffffffffffff161480611c9457508373ffffffffffffffffffffffffffffffffffffffff16611c7c8461077b565b73ffffffffffffffffffffffffffffffffffffffff16145b80611ca55750611ca481856118ad565b5b91505092915050565b8273ffffffffffffffffffffffffffffffffffffffff16611cce826110dc565b73ffffffffffffffffffffffffffffffffffffffff1614611d24576040517f08c379a0000000000000000000000000000000000000000000000000000000008152600401611d1b90613cd0565b60405180910390fd5b600073ffffffffffffffffffffffffffffffffffffffff168273ffffffffffffffffffffffffffffffffffffffff161415611d94576040517f08c379a0000000000000000000000000000000000000000000000000000000008152600401611d8b90613d62565b60405180910390fd5b611d9f8383836124ab565b611daa600082611b17565b6001600360008573ffffffffffffffffffffffffffffffffffffffff1673ffffffffffffffffffffffffffffffffffffffff1681526020019081526020016000206000828254611dfa9190613db1565b925050819055506001600360008473ffffffffffffffffffffffffffffffffffffffff1673ffffffffffffffffffffffffffffffffffffffff1681526020019081526020016000206000828254611e519190613de5565b92505081905550816002600083815260200190815260200160002060006101000a81548173ffffffffffffffffffffffffffffffffffffffff021916908373ffffffffffffffffffffffffffffffffffffffff160217905550808273ffffffffffffffffffffffffffffffffffffffff168473ffffffffffffffffffffffffffffffffffffffff167fddf252ad1be2c89b69c2b068fc378daa952ba7f163c4a11628f55a4df523b3ef60405160405180910390a4505050565b600081600001549050919050565b6000600c6000838152602001908152602001600020600001819055506000600c600083815260200190815260200160002060010160006101000a81548173ffffffffffffffffffffffffffffffffffffffff021916908373ffffffffffffffffffffffffffffffffffffffff16021790555050565b60008183611f9b9190613db1565b905092915050565b60008160000154905060008111611fef576040517f08c379a0000000000000000000000000000000000000000000000000000000008152600401611fe690613e87565b60405180910390fd5b6001810382600001819055505050565b6000818361200d9190613ea7565b905092915050565b600081836120239190613f30565b905092915050565b600081836120399190613de5565b905092915050565b6000612069836000018373ffffffffffffffffffffffffffffffffffffffff1660001b6124b0565b905092915050565b6000612099836000018373ffffffffffffffffffffffffffffffffffffffff1660001b6124d3565b905092915050565b6001816000016000828254019250508190555050565b6000600760009054906101000a900473ffffffffffffffffffffffffffffffffffffffff16905081600760006101000a81548173ffffffffffffffffffffffffffffffffffffffff021916908373ffffffffffffffffffffffffffffffffffffffff1602179055508173ffffffffffffffffffffffffffffffffffffffff168173ffffffffffffffffffffffffffffffffffffffff167f8be0079c531659141344cd1fd0a4f28419497f9722a3daafe3b4186f6b6457e060405160405180910390a35050565b600061218b82600001612543565b9050919050565b8173ffffffffffffffffffffffffffffffffffffffff168373ffffffffffffffffffffffffffffffffffffffff161415612201576040517f08c379a00000000000000000000000000000000000000000000000000000000081526004016121f890613fad565b60405180910390fd5b80600560008573ffffffffffffffffffffffffffffffffffffffff1673ffffffffffffffffffffffffffffffffffffffff16815260200190815260200160002060008473ffffffffffffffffffffffffffffffffffffffff1673ffffffffffffffffffffffffffffffffffffffff16815260200190815260200160002060006101000a81548160ff0219169083151502179055508173ffffffffffffffffffffffffffffffffffffffff168373ffffffffffffffffffffffffffffffffffffffff167f17307eab39ab6107e8899845ad3d59bd9653f200f220920489ca2b5937696c31836040516122f29190612bd0565b60405180910390a3505050565b61230a848484611cae565b61231684848484612554565b612355576040517f08c379a000000000000000000000000000000000000000000000000000000000815260040161234c9061403f565b60405180910390fd5b50505050565b606060405180602001604052806000815250905090565b606061237d82611aa3565b6123bc576040517f08c379a00000000000000000000000000000000000000000000000000000000081526004016123b3906140d1565b60405180910390fd5b60006123c661235b565b905060008151116123e65760405180602001604052806000815250612411565b806123f0846126dc565b604051602001612401929190613a8d565b6040516020818303038152906040525b915050919050565b61243382826040518060200160405280600081525061283d565b5050565b61244082611aa3565b61247f576040517f08c379a000000000000000000000000000000000000000000000000000000000815260040161247690614163565b60405180910390fd5b806006600084815260200190815260200160002090805190602001906124a6929190612a79565b505050565b505050565b600080836001016000848152602001908152602001600020541415905092915050565b60006124df83836124b0565b61253857826000018290806001815401808255809150506001900390600052602060002001600090919091909150558260000180549050836001016000848152602001908152602001600020819055506001905061253d565b600090505b92915050565b600081600001805490509050919050565b60006125758473ffffffffffffffffffffffffffffffffffffffff16612898565b156126cf578373ffffffffffffffffffffffffffffffffffffffff1663150b7a0261259e611b0f565b8786866040518563ffffffff1660e01b81526004016125c094939291906141d8565b6020604051808303816000875af19250505080156125fc57506040513d601f19601f820116820180604052508101906125f99190614239565b60015b61267f573d806000811461262c576040519150601f19603f3d011682016040523d82523d6000602084013e612631565b606091505b50600081511415612677576040517f08c379a000000000000000000000000000000000000000000000000000000000815260040161266e9061403f565b60405180910390fd5b805181602001fd5b63150b7a0260e01b7bffffffffffffffffffffffffffffffffffffffffffffffffffffffff1916817bffffffffffffffffffffffffffffffffffffffffffffffffffffffff1916149150506126d4565b600190505b949350505050565b60606000821415612724576040518060400160405280600181526020017f30000000000000000000000000000000000000000000000000000000000000008152509050612838565b600082905060005b6000821461275657808061273f90614266565b915050600a8261274f9190613f30565b915061272c565b60008167ffffffffffffffff81111561277257612771612f31565b5b6040519080825280601f01601f1916602001820160405280156127a45781602001600182028036833780820191505090505b5090505b60008514612831576001826127bd9190613db1565b9150600a856127cc91906142af565b60306127d89190613de5565b60f81b8183815181106127ee576127ed6142e0565b5b60200101907effffffffffffffffffffffffffffffffffffffffffffffffffffffffffffff1916908160001a905350600a8561282a9190613f30565b94506127a8565b8093505050505b919050565b61284783836128ab565b6128546000848484612554565b612893576040517f08c379a000000000000000000000000000000000000000000000000000000000815260040161288a9061403f565b60405180910390fd5b505050565b600080823b905060008111915050919050565b600073ffffffffffffffffffffffffffffffffffffffff168273ffffffffffffffffffffffffffffffffffffffff16141561291b576040517f08c379a00000000000000000000000000000000000000000000000000000000081526004016129129061435b565b60405180910390fd5b61292481611aa3565b15612964576040517f08c379a000000000000000000000000000000000000000000000000000000000815260040161295b906143c7565b60405180910390fd5b612970600083836124ab565b6001600360008473ffffffffffffffffffffffffffffffffffffffff1673ffffffffffffffffffffffffffffffffffffffff16815260200190815260200160002060008282546129c09190613de5565b92505081905550816002600083815260200190815260200160002060006101000a81548173ffffffffffffffffffffffffffffffffffffffff021916908373ffffffffffffffffffffffffffffffffffffffff160217905550808273ffffffffffffffffffffffffffffffffffffffff16600073ffffffffffffffffffffffffffffffffffffffff167fddf252ad1be2c89b69c2b068fc378daa952ba7f163c4a11628f55a4df523b3ef60405160405180910390a45050565b828054612a85906131fb565b90600052602060002090601f016020900481019282612aa75760008555612aee565b82601f10612ac057805160ff1916838001178555612aee565b82800160010185558215612aee579182015b82811115612aed578251825591602001919060010190612ad2565b5b509050612afb9190612aff565b5090565b5b80821115612b18576000816000905550600101612b00565b5090565b6000604051905090565b600080fd5b600080fd5b60007fffffffff0000000000000000000000000000000000000000000000000000000082169050919050565b612b6581612b30565b8114612b7057600080fd5b50565b600081359050612b8281612b5c565b92915050565b600060208284031215612b9e57612b9d612b26565b5b6000612bac84828501612b73565b91505092915050565b60008115159050919050565b612bca81612bb5565b82525050565b6000602082019050612be56000830184612bc1565b92915050565b600081519050919050565b600082825260208201905092915050565b60005b83811015612c25578082015181840152602081019050612c0a565b83811115612c34576000848401525b50505050565b6000601f19601f8301169050919050565b6000612c5682612beb565b612c608185612bf6565b9350612c70818560208601612c07565b612c7981612c3a565b840191505092915050565b60006020820190508181036000830152612c9e8184612c4b565b905092915050565b6000819050919050565b612cb981612ca6565b8114612cc457600080fd5b50565b600081359050612cd681612cb0565b92915050565b600060208284031215612cf257612cf1612b26565b5b6000612d0084828501612cc7565b91505092915050565b600073ffffffffffffffffffffffffffffffffffffffff82169050919050565b6000612d3482612d09565b9050919050565b612d4481612d29565b82525050565b6000602082019050612d5f6000830184612d3b565b92915050565b612d6e81612d29565b8114612d7957600080fd5b50565b600081359050612d8b81612d65565b92915050565b60008060408385031215612da857612da7612b26565b5b6000612db685828601612d7c565b9250506020612dc785828601612cc7565b9150509250929050565b600080600060608486031215612dea57612de9612b26565b5b6000612df886828701612d7c565b9350506020612e0986828701612d7c565b9250506040612e1a86828701612cc7565b9150509250925092565b612e2d81612ca6565b82525050565b6000602082019050612e486000830184612e24565b92915050565b600060208284031215612e6457612e63612b26565b5b6000612e7284828501612d7c565b91505092915050565b60008060408385031215612e9257612e91612b26565b5b6000612ea085828601612cc7565b9250506020612eb185828601612cc7565b9150509250929050565b612ec481612bb5565b8114612ecf57600080fd5b50565b600081359050612ee181612ebb565b92915050565b60008060408385031215612efe57612efd612b26565b5b6000612f0c85828601612d7c565b9250506020612f1d85828601612ed2565b9150509250929050565b600080fd5b600080fd5b7f4e487b7100000000000000000000000000000000000000000000000000000000600052604160045260246000fd5b612f6982612c3a565b810181811067ffffffffffffffff82111715612f8857612f87612f31565b5b80604052505050565b6000612f9b612b1c565b9050612fa78282612f60565b919050565b600067ffffffffffffffff821115612fc757612fc6612f31565b5b612fd082612c3a565b9050602081019050919050565b82818337600083830152505050565b6000612fff612ffa84612fac565b612f91565b90508281526020810184848401111561301b5761301a612f2c565b5b613026848285612fdd565b509392505050565b600082601f83011261304357613042612f27565b5b8135613053848260208601612fec565b91505092915050565b6000806000806080858703121561307657613075612b26565b5b600061308487828801612d7c565b945050602061309587828801612d7c565b93505060406130a687828801612cc7565b925050606085013567ffffffffffffffff8111156130c7576130c6612b2b565b5b6130d38782880161302e565b91505092959194509250565b600080fd5b600080fd5b60008083601f8401126130ff576130fe612f27565b5b8235905067ffffffffffffffff81111561311c5761311b6130df565b5b602083019150836001820283011115613138576131376130e4565b5b9250929050565b6000806020838503121561315657613155612b26565b5b600083013567ffffffffffffffff81111561317457613173612b2b565b5b613180858286016130e9565b92509250509250929050565b600080604083850312156131a3576131a2612b26565b5b60006131b185828601612d7c565b92505060206131c285828601612d7c565b9150509250929050565b7f4e487b7100000000000000000000000000000000000000000000000000000000600052602260045260246000fd5b6000600282049050600182168061321357607f821691505b60208210811415613227576132266131cc565b5b50919050565b7f4552433732313a20617070726f76656420717565727920666f72206e6f6e657860008201527f697374656e7420746f6b656e0000000000000000000000000000000000000000602082015250565b6000613289602c83612bf6565b91506132948261322d565b604082019050919050565b600060208201905081810360008301526132b88161327c565b9050919050565b7f4552433732313a20617070726f76616c20746f2063757272656e74206f776e6560008201527f7200000000000000000000000000000000000000000000000000000000000000602082015250565b600061331b602183612bf6565b9150613326826132bf565b604082019050919050565b6000602082019050818103600083015261334a8161330e565b9050919050565b7f4552433732313a20617070726f76652063616c6c6572206973206e6f74206f7760008201527f6e6572206e6f7220617070726f76656420666f7220616c6c0000000000000000602082015250565b60006133ad603883612bf6565b91506133b882613351565b604082019050919050565b600060208201905081810360008301526133dc816133a0565b9050919050565b7f4552433732313a207472616e736665722063616c6c6572206973206e6f74206f60008201527f776e6572206e6f7220617070726f766564000000000000000000000000000000602082015250565b600061343f603183612bf6565b915061344a826133e3565b604082019050919050565b6000602082019050818103600083015261346e81613432565b9050919050565b7f4f776e61626c653a2063616c6c6572206973206e6f7420746865206f776e6572600082015250565b60006134ab602083612bf6565b91506134b682613475565b602082019050919050565b600060208201905081810360008301526134da8161349e565b9050919050565b7f4e46544d61726b65743a2062616c616e6365206973207a65726f000000000000600082015250565b6000613517601a83612bf6565b9150613522826134e1565b602082019050919050565b600060208201905081810360008301526135468161350a565b9050919050565b7f4e46544d61726b65743a206e6674206e6f74206c697374656420666f7220736160008201527f6c65000000000000000000000000000000000000000000000000000000000000602082015250565b60006135a9602283612bf6565b91506135b48261354d565b604082019050919050565b600060208201905081810360008301526135d88161359c565b9050919050565b7f4e46544d61726b65743a20796f75277265206e6f74207468652073656c6c6572600082015250565b6000613615602083612bf6565b9150613620826135df565b602082019050919050565b6000602082019050818103600083015261364481613608565b9050919050565b60006060820190506136606000830186612d3b565b61366d6020830185612d3b565b61367a6040830184612e24565b949350505050565b50565b6000613692600083612bf6565b915061369d82613682565b600082019050919050565b6000819050919050565b6000819050919050565b60006136d76136d26136cd846136a8565b6136b2565b612ca6565b9050919050565b6136e7816136bc565b82525050565b600060a0820190506137026000830187612e24565b61370f6020830186612d3b565b61371c6040830185612d3b565b818103606083015261372d81613685565b905061373c60808301846136de565b95945050505050565b7f4e46544d61726b65743a20696e636f7272656374207072696365000000000000600082015250565b600061377b601a83612bf6565b915061378682613745565b602082019050919050565b600060208201905081810360008301526137aa8161376e565b9050919050565b7f4552433732313a206f776e657220717565727920666f72206e6f6e657869737460008201527f656e7420746f6b656e0000000000000000000000000000000000000000000000602082015250565b600061380d602983612bf6565b9150613818826137b1565b604082019050919050565b6000602082019050818103600083015261383c81613800565b9050919050565b7f4552433732313a2062616c616e636520717565727920666f7220746865207a6560008201527f726f206164647265737300000000000000000000000000000000000000000000602082015250565b600061389f602a83612bf6565b91506138aa82613843565b604082019050919050565b600060208201905081810360008301526138ce81613892565b9050919050565b7f4e46544d61726b65743a207072696365206d757374206265206772656174657260008201527f207468616e203000000000000000000000000000000000000000000000000000602082015250565b6000613931602783612bf6565b915061393c826138d5565b604082019050919050565b6000602082019050818103600083015261396081613924565b9050919050565b600060a08201905061397c6000830187612e24565b6139896020830186612d3b565b6139966040830185612d3b565b81810360608301526139a781613685565b90506139b66080830184612e24565b95945050505050565b7f45524337323155524953746f726167653a2055524920717565727920666f722060008201527f6e6f6e6578697374656e7420746f6b656e000000000000000000000000000000602082015250565b6000613a1b603183612bf6565b9150613a26826139bf565b604082019050919050565b60006020820190508181036000830152613a4a81613a0e565b9050919050565b600081905092915050565b6000613a6782612beb565b613a718185613a51565b9350613a81818560208601612c07565b80840191505092915050565b6000613a998285613a5c565b9150613aa58284613a5c565b91508190509392505050565b6000613abd8385612bf6565b9350613aca838584612fdd565b613ad383612c3a565b840190509392505050565b600060a082019050613af36000830189612e24565b613b006020830188612d3b565b613b0d6040830187612d3b565b8181036060830152613b20818587613ab1565b9050613b2f60808301846136de565b979650505050505050565b7f4f776e61626c653a206e6577206f776e657220697320746865207a65726f206160008201527f6464726573730000000000000000000000000000000000000000000000000000602082015250565b6000613b96602683612bf6565b9150613ba182613b3a565b604082019050919050565b60006020820190508181036000830152613bc581613b89565b9050919050565b7f4552433732313a206f70657261746f7220717565727920666f72206e6f6e657860008201527f697374656e7420746f6b656e0000000000000000000000000000000000000000602082015250565b6000613c28602c83612bf6565b9150613c3382613bcc565b604082019050919050565b60006020820190508181036000830152613c5781613c1b565b9050919050565b7f4552433732313a207472616e73666572206f6620746f6b656e2074686174206960008201527f73206e6f74206f776e0000000000000000000000000000000000000000000000602082015250565b6000613cba602983612bf6565b9150613cc582613c5e565b604082019050919050565b60006020820190508181036000830152613ce981613cad565b9050919050565b7f4552433732313a207472616e7366657220746f20746865207a65726f2061646460008201527f7265737300000000000000000000000000000000000000000000000000000000602082015250565b6000613d4c602483612bf6565b9150613d5782613cf0565b604082019050919050565b60006020820190508181036000830152613d7b81613d3f565b9050919050565b7f4e487b7100000000000000000000000000000000000000000000000000000000600052601160045260246000fd5b6000613dbc82612ca6565b9150613dc783612ca6565b925082821015613dda57613dd9613d82565b5b828203905092915050565b6000613df082612ca6565b9150613dfb83612ca6565b9250827fffffffffffffffffffffffffffffffffffffffffffffffffffffffffffffffff03821115613e3057613e2f613d82565b5b828201905092915050565b7f436f756e7465723a2064656372656d656e74206f766572666c6f770000000000600082015250565b6000613e71601b83612bf6565b9150613e7c82613e3b565b602082019050919050565b60006020820190508181036000830152613ea081613e64565b9050919050565b6000613eb282612ca6565b9150613ebd83612ca6565b9250817fffffffffffffffffffffffffffffffffffffffffffffffffffffffffffffffff0483118215151615613ef657613ef5613d82565b5b828202905092915050565b7f4e487b7100000000000000000000000000000000000000000000000000000000600052601260045260246000fd5b6000613f3b82612ca6565b9150613f4683612ca6565b925082613f5657613f55613f01565b5b828204905092915050565b7f4552433732313a20617070726f766520746f2063616c6c657200000000000000600082015250565b6000613f97601983612bf6565b9150613fa282613f61565b602082019050919050565b60006020820190508181036000830152613fc681613f8a565b9050919050565b7f4552433732313a207472616e7366657220746f206e6f6e20455243373231526560008201527f63656976657220696d706c656d656e7465720000000000000000000000000000602082015250565b6000614029603283612bf6565b915061403482613fcd565b604082019050919050565b600060208201905081810360008301526140588161401c565b9050919050565b7f4552433732314d657461646174613a2055524920717565727920666f72206e6f60008201527f6e6578697374656e7420746f6b656e0000000000000000000000000000000000602082015250565b60006140bb602f83612bf6565b91506140c68261405f565b604082019050919050565b600060208201905081810360008301526140ea816140ae565b9050919050565b7f45524337323155524953746f726167653a2055524920736574206f66206e6f6e60008201527f6578697374656e7420746f6b656e000000000000000000000000000000000000602082015250565b600061414d602e83612bf6565b9150614158826140f1565b604082019050919050565b6000602082019050818103600083015261417c81614140565b9050919050565b600081519050919050565b600082825260208201905092915050565b60006141aa82614183565b6141b4818561418e565b93506141c4818560208601612c07565b6141cd81612c3a565b840191505092915050565b60006080820190506141ed6000830187612d3b565b6141fa6020830186612d3b565b6142076040830185612e24565b8181036060830152614219818461419f565b905095945050505050565b60008151905061423381612b5c565b92915050565b60006020828403121561424f5761424e612b26565b5b600061425d84828501614224565b91505092915050565b600061427182612ca6565b91507fffffffffffffffffffffffffffffffffffffffffffffffffffffffffffffffff8214156142a4576142a3613d82565b5b600182019050919050565b60006142ba82612ca6565b91506142c583612ca6565b9250826142d5576142d4613f01565b5b828206905092915050565b7f4e487b7100000000000000000000000000000000000000000000000000000000600052603260045260246000fd5b7f4552433732313a206d696e7420746f20746865207a65726f2061646472657373600082015250565b6000614345602083612bf6565b91506143508261430f565b602082019050919050565b6000602082019050818103600083015261437481614338565b9050919050565b7f4552433732313a20746f6b656e20616c7265616479206d696e74656400000000600082015250565b60006143b1601c83612bf6565b91506143bc8261437b565b602082019050919050565b600060208201905081810360008301526143e0816143a4565b905091905056fea2646970667358221220e92a216638e11f9205a3f5f7f5ef60aa541bb7f29bddcd4efa26f44834ef4ea764736f6c634300080b0033",
  "linkReferences": {},
  "deployedLinkReferences": {}
}